:02000002D0002C
:1040000000400D0084580D00000006000C00050162
:084010000401BD0B00000000DB
:0440180068550D00DA
:10401C0009480A49884208B505D0094A824202D0AB
:10402C00121A01F059FA0748074A0021121A01F036
:10403C0061FA014808BD00BFA0E50320F4570D004C
:10404C0008E6032008E60320F0E7032070B5074ECE
:10405C00074C00F0B7FEA41BA4080025A54200D114
:10406C0070BD56F8043B98470135F7E7C8570D006B
:10407C00EC570D0000F074B808B500F095F8BDE8E9
:10408C00084000F061BE00F027BC00F02DBC000021
:10409C0008B5034A00210C2000F082FBFEE700BFAC
:1040AC007D450D000078B0FA80F04009704701237F
:1040BC0003707047704710B51021044601F0F9F9F0
:1040CC00204610BD10B50446006808B100F00CFC89
:1040DC00204610BD0EB403B503AB002153F8042BDE
:1040EC00019300F0AEFD02B05DF804EB03B0704735
:1040FC0073B5044608462279A36832B1A3B90B49BB
:10410C0002B0BDE8704000F061BD094A267B094D44
:10411C000949647B012E18BF2946CDE900140749D3
:10412C00FFF7D8FF02B070BD054AEFE78D550D00C3
:10413C0084550D0089550D0085550D00A3550D00B6
:10414C007C550D000EB403B503AB012153F8042BC1
:10415C00019300F076FD02B05DF804EB03B07047FC
:10416C007FB500F035FF4FF4165100F025FF41F2FA
:10417C00883000F0AFFD03A800F0FAF8502103A836
:10418C0000F003F903A9064800F06EF9019000F065
:10419C001FFF019A0349FFF7D5FF07B05DF804FB39
:1041AC0024E60320C0550D001FB5114C00F0E8F9B2
:1041BC002368C01A632813D900F0E2F902A9206021
:1041CC000C4800F01BF968B100F002FFBDF90C308F
:1041DC000093BDF90820BDF90A300749FFF7B2FF7B
:1041EC0004B010BD00F0F4FE044900F002FDF7E746
:1041FC004CE6032024E60320D0550D00D9550D00C4
:10420C0037B5214C214D0021012000F0E1FA0023AB
:10421C002360A380A371A3F58033A360032000F077
:10422C00C7FA20461A4C1B4A1B4901F03DF90821DC
:10423C00204600F0B5F8194B23602978BFF35B8F4B
:10424C0011F001010BD128460191FFF72BFF0199C9
:10425C0028B1134800F0A4FB2846FFF728FF104BA9
:10426C00E36003230F4A236100232375A2612377A4
:10427C00084A0D4B0D49064823620123A38403B061
:10428C00BDE8304001F010B918E603200CE603201D
:10429C0024E6032008E60320D1400D0030560D0023
:1042AC0010E60320EC550D0080969800BD420D00E1
:1042BC00704710B52821044601F0FBF8204610BDCC
:1042CC0010B5044600F11801C06800F09FFB208A6D
:1042DC000021BDE8104001F08DB810B50446012155
:1042EC00008A01F087F8E068BDE8104000F075BB6B
:1042FC00F8B51E4603685B690F4614460546984799
:10430C00012E88BF47F04007E86847F0800100F0B5
:10431C00EBFB2644B44206D0E868002100F0E4FB35
:10432C0004F8010BF6E72B6828469B699847012097
:10433C00F8BDF8B51E4603685B690F461446054682
:10434C009847012E88BF47F04007E868394600F0CF
:10435C00CBFB2644B44205D014F8011BE86800F0EE
:10436C00C3FBF7E72B6828469B6998470120F8BDEB
:10437C000022027042708270C270027142718271AE
:10438C00C2710272427282727047002241F00701C0
:10439C000170027182704270C271427270470000EB
:1043AC00024AC0E9002100220272704714560D0027
:1043BC0013B5036801AADC680123A0479DF804002B
:1043CC0002B010BD38B505460A240F212846FFF768
:1043DC00EFFF33284FF0010004D000F07BFC013CD0
:1043EC00F3D1204638BD10B50446018AC06800F0F0
:1043FC00E1FA2046BDE81040FFF7E4BFF7B50C46E4
:10440C0027210546FFF7D4FF00F00800002814BF51
:10441C00012600261BD02B686A46DF68282106235C
:10442C002846B8479DF801209DF8003043EA022346
:10443C0023809DF803209DF8023043EA0223638019
:10444C009DF805209DF8043043EA0223A3803046F2
:10445C0003B0F0BD13B503688DF804201C6901AAE4
:10446C000123A04702B010BD70B503689B680446D9
:10447C000D469847064630B900F0AAFD274900F0D2
:10448C00B8FB304670BD2A7820212046FFF7E2FFAA
:10449C006A7821212046FFF7DDFFAA7822212046E9
:1044AC00FFF7D8FFEA7823212046FFF7D3FF2A79BC
:1044BC0024212046FFF7CEFF6A7925212046FFF7FD
:1044CC00C9FFAB791BB126212046FFF771FFAA7AF1
:1044DC002E212046FFF7BEFFAB785B06D1D5EA79DB
:1044EC0032212046FFF7B6FF2A7A33212046FFF708
:1044FC00B1FF6368002B0ADB6A7A227220463021F6
:10450C00FFF7A8FF31212046FFF752FFB9E7002241
:10451C00227230212046FFF79DFFB2E7F8550D00BF
:10452C0008B5024B1B689B68019308BD6802030029
:10453C0008B5024B1B68DB68019308BD68020300D9
:10454C0008B5024B1B68DB68019308BD2C02030005
:10455C0008B5024B1B681B69019308BD2C020300B4
:10456C0008B5024B1B685B68019308BD1802030079
:10457C0008B5024B1B68DB68019308BD18020300E9
:10458C0008B5024B1B685B69019308BD1802030058
:10459C0008B5024B1B685B6C019308BD4802030015
:1045AC0008B5024B1B689B6C019308BD48020300C5
:1045BC0008B5024B1B685B69019308BD64020300DC
:1045CC0008B5024B1B681B68019308BD3C02030035
:1045DC0008B5024B1B68DB68019308BD3C02030065
:1045EC0008B5024B1B681B69019308BD3C02030014
:1045FC0008B5024B1B685B69019308BD3C020300C4
:10460C0008B5024B1B689B69019308BD3C02030073
:10461C0008B5024B1B68DB69019308BD3C02030023
:10462C0008B5024B1B681B6A019308BD3C020300D2
:10463C0008B5024B1B689B6A019308BD3C02030042
:10464C0008B5024B1B681B6A019308BD28020300C6
:10465C0008B5024B1B685B6A019308BD2802030076
:10466C0008B5024B1B689B6A019308BD2802030026
:10467C0008B5024B1B68DB6A019308BD28020300D6
:10468C0008B5024B1B681B6B019308BD2802030085
:10469C0008B5024B1B685B6B019308BD2802030035
:1046AC0008B5024B1B681B6C019308BD2802030064
:1046BC0008B5024B1B681B68019308BD3002030050
:1046CC0008B5024B1B685B69019308BD30020300FF
:1046DC0008B5024B1B68DB69019308BD300203006F
:1046EC0008B5024B1B681B6A019308BD300203001E
:1046FC0008B5024B1B685B6A019308BD30020300CE
:10470C0008B5024B1B68DB6B019308BD300203003C
:10471C0008B5024B1B681B6C019308BD30020300EB
:10472C0008B5024B1B685B6C019308BD300203009B
:10473C0008B5024B1B681B68019308BD4C020300B3
:10474C0008B5024B1B685B68019308BD4C02030063
:10475C0008B5024B1B681B69019308BD4C02030092
:10476C0008B5024B1B685B69019308BD4C02030042
:10477C0008B5024B1B689B69019308BD4C020300F2
:10478C0008B5024B1B68DB69019308BD4C020300A2
:10479C0008B5024B1B681B6A019308BD4C02030051
:1047AC0008B5024B1B685B6B019308BD60020300EC
:1047BC0008B5024B1B685B68019308BD200203001F
:1047CC0008B5024B1B685B69019308BD200203000E
:1047DC0008B5024B1B68DB6A019308BD200203007D
:1047EC0008B5034B1B68D3F88830019308BD000053
:1047FC002002030008B5034B1B68D3F894300193D7
:10480C0008BD00002002030008B5024B1B685B6862
:10481C00019308BD4002030008B5024B1B689B685E
:10482C00019308BD4002030008B5024B1B68DB680E
:10483C00019308BD4002030008B5024B1B681B69BD
:10484C00019308BD4002030008B5024B1B685B696D
:10485C00019308BD4002030008B5024B1B689B691D
:10486C00019308BD4002030008B5024B1B68DB69CD
:10487C00019308BD4002030008B5024B1B681B6A7C
:10488C00019308BD4002030008B5024B1B681B6B6B
:10489C00019308BD4002030008B5024B1B685B6B1B
:1048AC00019308BD4002030008B5024B1B681B6C4A
:1048BC00019308BD4002030008B5024B1B685B6CFA
:1048CC00019308BD4002030008B5024B1B68DB6B6B
:1048DC00019308BD4402030008B5024B1B681B681A
:1048EC00019308BD1C02030008B5024B1B685B68F2
:1048FC00019308BD1C02030008B5024B1B685B6AE0
:10490C00019308BD1C02030008B5024B1B685B6CCD
:10491C00019308BD1C020300002240681146FFF7FA
:10492C00ABBF002240681146FFF7B6BF40680022BB
:10493C00FFF7AABF4068002281F00101FFF794BF86
:10494C00002340681A461946FFF786BF00234068CB
:10495C001A461946FFF778BF002240681146FFF748
:10496C006BBF002240681146FFF756BF406800221B
:10497C000221FFF759BF002340681A46FFF744BFD6
:10498C00024B03225A60024A1A60704750E6032019
:10499C0054560D000021FFF7BBBE0021FFF7C0BE2F
:1049AC0010B5044608462170FFF792FE00236360A1
:1049BC00204610BD13B5044600780191FFF7EAFFBD
:1049CC00019940B92078FFF773FE207802B0BDE85A
:1049DC001040FFF7E2BF02B010BD0078FFF7DDBF5B
:1049EC00400830B51860002418688842E5B206D932
:1049FC000134082C02D040081860F5E70725024B5B
:104A0C005B5D137030BD00BF88560D002DE9F0437F
:104A1C0006468FB000780C46FFF7BCFF00281BDB66
:104A2C0035781422002109A800F064FD0B23002224
:104A3C0009A92846ADF82430FFF75AFE9DF82D3011
:104A4C0013B19DF82C5055B10027B946B846012535
:104A5C0023795DB1C3B100200FB0BDE8F083DDF860
:104A6C0030809DF834909DF83570F1E7002B35D1EE
:104A7C00A368434508D18DF820908DF82170BDF8BE
:104A8C002020A3899A42E6D00023A1688DF80F302C
:104A9C000A9804AB0DF10F02FFF7A2FF217985B93B
:104AAC0089B9A36843450ED38DF820908DF82170F9
:104ABC00BDF82020A3899A4205D1049B434502D11D
:104ACC00C9E70029F9D100230193637B00939DF87A
:104ADC000F20237B3078FFF713FEBCE7CDE90055A0
:104AEC002B462A460121F5E708B50078FFF7E8FDCB
:104AFC00C0B208BD10B5094B094C022200201A6047
:104B0C00084B2060A080A071A360FFF751FE2046E7
:104B1C00054A0649BDE8104000F0C6BC64E6032017
:104B2C0058E603200000FFFF08E60320D1400D00EB
:104B3C0010B50446006808B1FFF732FD204610BDE1
:104B4C0010B58368044613B10322014698472046EA
:104B5C0010BD000010B5064C002320462360FFF763
:104B6C0017FD2046034A0449BDE8104000F09CBCE8
:104B7C0068E6032008E603203D4B0D00F8B5064619
:104B8C000D468F180024BD420CD0336815F8011B5C
:104B9C009B6830469847031E01DB1C44F3E7002C4E
:104BAC0008BF1C462046F8BD13B50446084659B14B
:104BBC00019100F0CBFC23680199DB68024620468A
:104BCC0002B0BDE81040184702B010BD08B5FFF7A1
:104BDC00EBFF08BD03689B68184738B50D210546E7
:104BEC00FFF7F8FF0A2104462846FFF7F3FF20449D
:104BFC0038BD38B50546FFF7D7FF04462846FFF702
:104C0C00ECFF204438BD30B58BB000238DF8243038
:104C1C00012A98BF0A2209AC0D46B1FBF2F101FB47
:104C2C00125303F0FF03092B94BF30333733DBB23D
:104C3C00AA4204F8013DEFD92146FFF7B5FF0BB0AE
:104C4C0030BD2DE9F04186B000AF05460E46381D4B
:104C5C00142114463B60FFF74FFE13280ED8391D64
:104C6C002846FFF7A1FF04461EB12846FFF7B5FF03
:104C7C00044420461837BD46BDE8F08100F1080316
:104C8C0023F00703E846ADEB030D2246411C3B68BD
:104C9C006846FFF731FE69462846FFF785FF044654
:104CAC00C546E1E7002340681A461946FFF7CCBD1C
:104CBC00014B024A1A6070476CE6032090560D00B7
:104CCC00024B1A68024B1A60704700BFA0E5032024
:104CDC0070E603200021FFF773BD10B50446FFF703
:104CEC002FFF204610BD00000348044A044900234E
:104CFC00836000F0D9BB00BF74E6032008E60320F4
:104D0C00E74C0D00014B1860704700BFA4E5032071
:104D1C0008B50B4B43B100F05BF903681B6998476E
:104D2C00002801DDAFF30080064B43B100F0CEF953
:104D3C0003681B699847002801DDAFF3008008BDAC
:104D4C00000000000000000008B5FFF7E1FFFFF7CE
:104D5C0017FC014B186008BDD4E703200248034A36
:104D6C000349121A00F0B8BB00F4032004F403202A
:104D7C00F0570D0007B5002300931A466FF077012A
:104D8C00FFF738FD03B05DF804FB000007B543885E
:104D9C000A2B08D0502B0BD1094B1B684BB103B01D
:104DAC005DF804EB1847FFF7E5FF03B05DF804FB73
:104DBC00002300931A466FF07701FFF71BFDF4E711
:104DCC0088E6032038B5124C1248134D0021FFF72A
:104DDC009BFD2368AB42114B0CBF012200221A70C1
:104DEC0002D0FFF7BBFF2560FFF7BAFB044600F0CB
:104DFC0089FB0B4B13B12046AFF300800021084810
:104E0C00FFF762FDBDE8384006480021FFF7E8BC1B
:104E1C0000F40320114D0D001E1C279A84E603207C
:104E2C0000000000994D0D00704710B51821044684
:104E3C0000F03FFB204610BDF0B5037D062B8DB076
:104E4C000E4600F104074FF0000412D000F10805E3
:104E5C0015F8011D0A223046FFF7D5FEAF42044477
:104E6C0019D0002CF4D02E213046FFF7B3FE0444A9
:104E7C00EEE72F236A4639460A208DF80040FFF7EB
:104E8C0097FB684600F062FB33680246DB686946B4
:104E9C0030469847044620460DB0F0BD10B5054B82
:104EAC000446112240F8043B002100F023FB20466D
:104EBC0010BD00BFB8560D000346074A10B543F8A5
:104ECC00042B01F1100251F8044B43F8044B9142AE
:104EDC00F9D10A781A7010BDB8560D0010B59DF8AE
:104EEC00084044EA032343EA024242EA01610423F4
:104EFC004160037510BD000013B5054B0360CB7802
:104F0C0000938B784A780978FFF7E8FF02B010BD60
:104F1C00B8560D0041747047704708B50021007CED
:104F2C00FFF726FC40EAE07008BD08B50121007CC3
:104F3C00FFF71EFC40EAE07008BD08B5007CFFF7E7
:104F4C000FFC20EAE07008BD08B5007CFFF700FC00
:104F5C0020EAE07008BD13B50446007C0191FFF710
:104F6C00FFFB0028019901DC607C20B1207CFFF75D
:104F7C0007FC20EAE07002B010BD007CFFF708BC13
:104F8C0010B51421044600F094FA204610BD000020
:104F9C0010B54FF47A73044608460021C4E9011396
:104FAC00044B23600123207463741146FFF7C0FB8C
:104FBC00204610BDCC560D00007C0022FFF7C0BB74
:104FCC0010B514220446002100F094FA204610BDBE
:104FDC0010B5104C88B003A8FFF7F2FF2178BFF38F
:104FEC005B8F11F0010111D120460191FFF75AF8A6
:104FFC00019958B103AA0848FFF7CAFF2046FFF7EA
:10500C0056F8064A0649044800F04EFA024808B021
:10501C0010BD00BF8CE6032090E6032008E60320B9
:10502C00254F0D0070474174704708B5007CFFF7A1
:10503C00FFFA20EAE07008BD08B5007CFFF7D0FA53
:10504C0020EAE07008BD08B5007CFFF7D9FA40EA09
:10505C00E07008BD08B5007CFFF7CAFA40EAE070C2
:10506C0008BD007CFFF7D4BA37B5457C04462DB19A
:10507C00207C03B0BDE83040FFF7AABA007C019158
:10508C00FFF7D6FA00280199F2DC284603B030BDB0
:10509C0010B51421044600F00CFA204610BD000097
:1050AC0010B54FF0000C0446084611464FF47A72C6
:1050BC00C4E901C2044A22600122207462741A46B7
:1050CC00FFF77EFA204610BDFC560D0013B50E4CB2
:1050DC002178BFF35B8F11F0010112D120460191B1
:1050EC00FEF7E0FF019960B1084A094B0948FFF748
:1050FC00D7FF2046FEF7DBFF074A0849054800F0BA
:10510C00D3F9044802B010BDA4E60320A8E603209E
:10511C002CE70320B0E7032008E6032031500D00F4
:10512C007047F8B5064615460C468F18BC4206D09B
:10513C00336814F8011B9B6830469847F6E72846FD
:10514C00F8BD007C0022FFF77BBA007C0021FFF742
:10515C007FBA007C0021FFF783BA007C0021FFF7A7
:10516C0087BA007C0021FFF78BBA10B514210446D6
:10517C0000F09FF9204610BD10B54FF47A73044629
:10518C0008460021C4E90113034B23602074114627
:10519C00FFF786FA204610BD2C570D000022406800
:1051AC001146FFF749BB002240681146FFF764BB6C
:1051BC00002240681146FFF76FBB40680022FFF7E2
:1051CC0063BB4068002281F00101FFF74DBB002357
:1051DC0040681A461946FFF73FBB0022406811464B
:1051EC00FFF71ABB406800220221FFF71DBB00230A
:1051FC0040681A46FFF708BB024B04225A60024A69
:10520C001A607047C4E7032054570D000023406810
:10521C001A46FFF7F9BA406800220221FFF704BBD7
:10522C00002240681146FFF7F7BA00224068114689
:10523C00FFF702BB002340681A461946FFF704BB70
:10524C00002340681A461946FFF706BB4068002148
:10525C00FFF72ABB40680021FFF72EBB40680022F5
:10526C0081F00101FFF700BB40680022FFF70CBB87
:10527C00002240681146FFF70FBB00224068114620
:10528C00FFF7FABA2DE9F043002495B016460D4607
:10529C000746FFF703FE214618220EA8009400F0E3
:1052AC0029F94023CDE90C3421466B460CAA304633
:1052BC00FFF73EF9044600284CD1024601216868EC
:1052CC00FFF7BAFA0221804622466868FFF7B4FA63
:1052DC00009E81462146002E3CD000293AD17368AD
:1052EC00022B03D00A2B11D0F669F4E7B8F1000FAA
:1052FC000AD0716906A8043107ADFFF7FDFD0FCD8B
:10530C003C1D0FC42B6823704146EDE7B9F1000F2B
:10531C0001D14946E8E77469102201A800F0EAF8C7
:10532C0006238DF8143001AD04F108031834186805
:10533C0059682A4603C20833A3421546F7D101A97E
:10534C0006A807ADFFF7B8FD0FCD3C1D0FC42B68A9
:10535C002370DEE70098FFF7E3F8384615B0BDE898
:10536C00F0830000024B034A1A6000225A60704717
:10537C00CCE7032090570D00232813B502D9002049
:10538C0002B010BDA0F10B03022B1AD8174C2178D8
:10539C00BFF35B8F11F001010BD120460191FEF799
:1053AC0081FE019928B11248FFF7FAFA2046FEF760
:1053BC007EFE0F4B1878FFF793F90028DFD1012000
:1053CC00DEE7012809D800F047F80021007CFFF740
:1053DC005FF980F00100C0B2D2E709380128EED89D
:1053EC00FFF774FE007CFFF71BF9F2E70CE60320D5
:1053FC0010E6032038B504460D46FFF7A1F8FF2848
:10540C0010D0062804D84D2323FA00F0C30709D482
:10541C002046FFF7B1FF28B129462046BDE83840A9
:10542C00FFF796B838BD000038B50023202543801F
:10543C00142304460380856005610649284600F064
:10544C003AF804496060284600F035F8E0602046E0
:10545C0038BD00BFC4570D0030B50F4D2978BFF3D0
:10546C005B8F11F0010487B013D12846FEF71AFEAA
:10547C0078B101A8FFF7D8FF01AA21460748FFF72A
:10548C007BFE2846FEF713FE054A0649034800F04A
:10549C000BF8024807B030BDD8E70320DCE7032047
:1054AC0008E603202D510D000B460146184600F06E
:1054BC0005B8FEF7EABDFEF7E6BD000010B5054CD9
:1054CC0013462CB10A4601460220AFF3008010BDF2
:1054DC002046FCE7000000000A44914200F1FF3333
:1054EC0000D1704710B511F8014B03F8014F9142F0
:1054FC00F9D110BD02440346934200D1704703F822
:10550C00011BF9E738B50D4B1D68AB6B04467BB935
:10551C001820FFF7E1F90A4A0A4BA863C0E90023F7
:10552C00094B83600B23838101220023C0E90423F0
:10553C00AB6B00221C615A6138BD00BFA4E503208F
:10554C000E33CDAB34126DE6ECDE0500034613F8DA
:10555C00012B002AFBD1181A013870471D400D0091
:10556C0059400D0081400D0085400D0000000000E9
:10557C0064656661756C7420004D5342004C534257
:10558C00003C53504953657474696E6773206465AD
:10559C006661756C743E003C535049536574746974
:1055AC006E67732025732575202573204D4F444558
:1055BC0025753E00736574757053756363657373FD
:1055CC003D25640025642C25642C2564006E6F2019
:1055DC0073616D706C65000000000000000000003D
:1055EC00FD400D00C1400D00C3400D00646576699F
:1055FC006365206E6F7420666F756E64000000002A
:10560C00000000000000000000000000000000008E
:10561C00D1430D009D400D009D400D000000000089
:10562C0000000000BD420D00BF420D00F3430D0011
:10563C00FD420D003F430D00CD420D00E7420D0031
:10564C00000000000000000083490D0079490D00A6
:10565C006F490D0065490D0059490D004D490D006C
:10566C0059520D0061520D0041490D0039490D0090
:10567C002F490D0025490D0091520D0000081018FE
:10568C00202830386170700025592D256D2D25642A
:10569C005425483A254D3A2553257A006173637495
:1056AC00696D65000000000000000000454E0D0013
:1056BC00354E0D00374E0D000000000000000000BC
:1056CC00254F0D008D4F0D00634F0D00894B0D00C4
:1056DC00554F0D00274F0D00374F0D00874F0D0014
:1056EC00474F0D00214F0D0000000000000000008E
:1056FC0031500D009D500D0075500D00894B0D0063
:10570C0045500D0061500D0053500D006F500D00B1
:10571C0033500D0037500D00000000000000000059
:10572C002D510D0077510D004F510D002F510D00D3
:10573C0057510D005F510D0067510D006F510D0059
:10574C000000000000000000FB510D00F1510D00A5
:10575C00E7510D00A9510D00B14C0D00DB510D00AE
:10576C0059520D0061520D00CF510D00C7510D0063
:10577C00BD510D00B3510D0091520D000000000001
:10578C000000000019520D0023520D002D520D0087
:10579C0037520D0041520D004D520D0059520D0063
:1057AC0061520D0069520D0075520D007D520D00B5
:1057BC0087520D0091520D00000000000D420D00AB
:1057CC008D490D00014B0D00614B0D00BD4C0D00C2
:1057DC00CD4C0D00F54C0D0005520D0071530D0014
:0457EC0000000000B9
:0457F00000000000B5
:1057F400A8560D00A8E503200000000000000000EA
:105804000000000000000000000000000000000094
:105814000000000000000000000000000000000084
:105824000000000000000000000000000000000074
:105834000000000000000000000000000000000064
:105844000000000000000000000000000000000054
:0858540000000000000000004C
:10585C00FFFFFFFF00000102030405060708090A09
:10586C000B0C0D0E0F101112131415161718191A04
:08587C001B1C1D1E1F2028004B
:04588400785634120C
:04000003D000401CCD
:00000001FF
